{
	"variableTypes.sol": {
		"vartypes": {
			"abi": [
				{
					"inputs": [],
					"name": "add",
					"outputs": [
						{
							"internalType": "uint256",
							"name": "",
							"type": "uint256"
						}
					],
					"stateMutability": "pure",
					"type": "function"
				},
				{
					"inputs": [],
					"name": "global",
					"outputs": [
						{
							"internalType": "uint256",
							"name": "",
							"type": "uint256"
						}
					],
					"stateMutability": "view",
					"type": "function"
				},
				{
					"inputs": [],
					"name": "global2",
					"outputs": [
						{
							"internalType": "address",
							"name": "",
							"type": "address"
						}
					],
					"stateMutability": "view",
					"type": "function"
				},
				{
					"inputs": [],
					"name": "global4",
					"outputs": [
						{
							"internalType": "uint256",
							"name": "",
							"type": "uint256"
						}
					],
					"stateMutability": "view",
					"type": "function"
				},
				{
					"inputs": [],
					"name": "val",
					"outputs": [
						{
							"internalType": "uint256",
							"name": "",
							"type": "uint256"
						}
					],
					"stateMutability": "view",
					"type": "function"
				}
			],
			"devdoc": {
				"kind": "dev",
				"methods": {},
				"version": 1
			},
			"evm": {
				"assembly": "    /* \"variableTypes.sol\":64:958  contract vartypes{... */\n  mstore(0x40, 0x80)\n    /* \"variableTypes.sol\":216:217  4 */\n  0x04\n    /* \"variableTypes.sol\":198:217  uint public val = 4 */\n  0x00\n  sstore\n    /* \"variableTypes.sol\":64:958  contract vartypes{... */\n  callvalue\n  dup1\n  iszero\n  tag_1\n  jumpi\n  0x00\n  dup1\n  revert\ntag_1:\n  pop\n  dataSize(sub_0)\n  dup1\n  dataOffset(sub_0)\n  0x00\n  codecopy\n  0x00\n  return\nstop\n\nsub_0: assembly {\n        /* \"variableTypes.sol\":64:958  contract vartypes{... */\n      mstore(0x40, 0x80)\n      callvalue\n      dup1\n      iszero\n      tag_1\n      jumpi\n      0x00\n      dup1\n      revert\n    tag_1:\n      pop\n      jumpi(tag_2, lt(calldatasize, 0x04))\n      shr(0xe0, calldataload(0x00))\n      dup1\n      0x05b97db6\n      eq\n      tag_3\n      jumpi\n      dup1\n      0x3c6bb436\n      eq\n      tag_4\n      jumpi\n      dup1\n      0x4f2be91f\n      eq\n      tag_5\n      jumpi\n      dup1\n      0xa05f9906\n      eq\n      tag_6\n      jumpi\n      dup1\n      0xae25ff26\n      eq\n      tag_7\n      jumpi\n    tag_2:\n      0x00\n      dup1\n      revert\n        /* \"variableTypes.sol\":548:678  function global2() public view returns(address){... */\n    tag_3:\n      tag_8\n      tag_9\n      jump\t// in\n    tag_8:\n      mload(0x40)\n      tag_10\n      swap2\n      swap1\n      tag_11\n      jump\t// in\n    tag_10:\n      mload(0x40)\n      dup1\n      swap2\n      sub\n      swap1\n      return\n        /* \"variableTypes.sol\":198:217  uint public val = 4 */\n    tag_4:\n      tag_12\n      tag_13\n      jump\t// in\n    tag_12:\n      mload(0x40)\n      tag_14\n      swap2\n      swap1\n      tag_15\n      jump\t// in\n    tag_14:\n      mload(0x40)\n      dup1\n      swap2\n      sub\n      swap1\n      return\n        /* \"variableTypes.sol\":226:425  function add() public pure returns(uint){... */\n    tag_5:\n      tag_16\n      tag_17\n      jump\t// in\n    tag_16:\n      mload(0x40)\n      tag_18\n      swap2\n      swap1\n      tag_15\n      jump\t// in\n    tag_18:\n      mload(0x40)\n      dup1\n      swap2\n      sub\n      swap1\n      return\n        /* \"variableTypes.sol\":433:542  function global() public view returns(uint){... */\n    tag_6:\n      tag_19\n      tag_20\n      jump\t// in\n    tag_19:\n      mload(0x40)\n      tag_21\n      swap2\n      swap1\n      tag_15\n      jump\t// in\n    tag_21:\n      mload(0x40)\n      dup1\n      swap2\n      sub\n      swap1\n      return\n        /* \"variableTypes.sol\":816:951  function global4() public view returns(uint){... */\n    tag_7:\n      tag_22\n      tag_23\n      jump\t// in\n    tag_22:\n      mload(0x40)\n      tag_24\n      swap2\n      swap1\n      tag_15\n      jump\t// in\n    tag_24:\n      mload(0x40)\n      dup1\n      swap2\n      sub\n      swap1\n      return\n        /* \"variableTypes.sol\":548:678  function global2() public view returns(address){... */\n    tag_9:\n        /* \"variableTypes.sol\":587:594  address */\n      0x00\n        /* \"variableTypes.sol\":613:623  msg.sender */\n      caller\n        /* \"variableTypes.sol\":606:623  return msg.sender */\n      swap1\n      pop\n        /* \"variableTypes.sol\":548:678  function global2() public view returns(address){... */\n      swap1\n      jump\t// out\n        /* \"variableTypes.sol\":198:217  uint public val = 4 */\n    tag_13:\n      sload(0x00)\n      dup2\n      jump\t// out\n        /* \"variableTypes.sol\":226:425  function add() public pure returns(uint){... */\n    tag_17:\n        /* \"variableTypes.sol\":261:265  uint */\n      0x00\n        /* \"variableTypes.sol\":379:388  uint val2 */\n      dup1\n        /* \"variableTypes.sol\":391:392  3 */\n      0x03\n        /* \"variableTypes.sol\":379:392  uint val2 = 3 */\n      swap1\n      pop\n        /* \"variableTypes.sol\":416:417  5 */\n      0x05\n        /* \"variableTypes.sol\":411:415  val2 */\n      dup2\n        /* \"variableTypes.sol\":411:417  val2+5 */\n      tag_27\n      swap2\n      swap1\n      tag_28\n      jump\t// in\n    tag_27:\n        /* \"variableTypes.sol\":404:417  return val2+5 */\n      swap2\n      pop\n      pop\n        /* \"variableTypes.sol\":226:425  function add() public pure returns(uint){... */\n      swap1\n      jump\t// out\n        /* \"variableTypes.sol\":433:542  function global() public view returns(uint){... */\n    tag_20:\n        /* \"variableTypes.sol\":471:475  uint */\n      0x00\n        /* \"variableTypes.sol\":494:509  block.timestamp */\n      timestamp\n        /* \"variableTypes.sol\":487:509  return block.timestamp */\n      swap1\n      pop\n        /* \"variableTypes.sol\":433:542  function global() public view returns(uint){... */\n      swap1\n      jump\t// out\n        /* \"variableTypes.sol\":816:951  function global4() public view returns(uint){... */\n    tag_23:\n        /* \"variableTypes.sol\":855:859  uint */\n      0x00\n        /* \"variableTypes.sol\":878:888  msg.sender */\n      caller\n        /* \"variableTypes.sol\":878:896  msg.sender.balance */\n      0xffffffffffffffffffffffffffffffffffffffff\n      and\n      balance\n        /* \"variableTypes.sol\":871:896  return msg.sender.balance */\n      swap1\n      pop\n        /* \"variableTypes.sol\":816:951  function global4() public view returns(uint){... */\n      swap1\n      jump\t// out\n        /* \"#utility.yul\":7:133   */\n    tag_31:\n        /* \"#utility.yul\":44:51   */\n      0x00\n        /* \"#utility.yul\":84:126   */\n      0xffffffffffffffffffffffffffffffffffffffff\n        /* \"#utility.yul\":77:82   */\n      dup3\n        /* \"#utility.yul\":73:127   */\n      and\n        /* \"#utility.yul\":62:127   */\n      swap1\n      pop\n        /* \"#utility.yul\":7:133   */\n      swap2\n      swap1\n      pop\n      jump\t// out\n        /* \"#utility.yul\":139:235   */\n    tag_32:\n        /* \"#utility.yul\":176:183   */\n      0x00\n        /* \"#utility.yul\":205:229   */\n      tag_40\n        /* \"#utility.yul\":223:228   */\n      dup3\n        /* \"#utility.yul\":205:229   */\n      tag_31\n      jump\t// in\n    tag_40:\n        /* \"#utility.yul\":194:229   */\n      swap1\n      pop\n        /* \"#utility.yul\":139:235   */\n      swap2\n      swap1\n      pop\n      jump\t// out\n        /* \"#utility.yul\":241:359   */\n    tag_33:\n        /* \"#utility.yul\":328:352   */\n      tag_42\n        /* \"#utility.yul\":346:351   */\n      dup2\n        /* \"#utility.yul\":328:352   */\n      tag_32\n      jump\t// in\n    tag_42:\n        /* \"#utility.yul\":323:326   */\n      dup3\n        /* \"#utility.yul\":316:353   */\n      mstore\n        /* \"#utility.yul\":241:359   */\n      pop\n      pop\n      jump\t// out\n        /* \"#utility.yul\":365:587   */\n    tag_11:\n        /* \"#utility.yul\":458:462   */\n      0x00\n        /* \"#utility.yul\":496:498   */\n      0x20\n        /* \"#utility.yul\":485:494   */\n      dup3\n        /* \"#utility.yul\":481:499   */\n      add\n        /* \"#utility.yul\":473:499   */\n      swap1\n      pop\n        /* \"#utility.yul\":509:580   */\n      tag_44\n        /* \"#utility.yul\":577:578   */\n      0x00\n        /* \"#utility.yul\":566:575   */\n      dup4\n        /* \"#utility.yul\":562:579   */\n      add\n        /* \"#utility.yul\":553:559   */\n      dup5\n        /* \"#utility.yul\":509:580   */\n      tag_33\n      jump\t// in\n    tag_44:\n        /* \"#utility.yul\":365:587   */\n      swap3\n      swap2\n      pop\n      pop\n      jump\t// out\n        /* \"#utility.yul\":593:670   */\n    tag_34:\n        /* \"#utility.yul\":630:637   */\n      0x00\n        /* \"#utility.yul\":659:664   */\n      dup2\n        /* \"#utility.yul\":648:664   */\n      swap1\n      pop\n        /* \"#utility.yul\":593:670   */\n      swap2\n      swap1\n      pop\n      jump\t// out\n        /* \"#utility.yul\":676:794   */\n    tag_35:\n        /* \"#utility.yul\":763:787   */\n      tag_47\n        /* \"#utility.yul\":781:786   */\n      dup2\n        /* \"#utility.yul\":763:787   */\n      tag_34\n      jump\t// in\n    tag_47:\n        /* \"#utility.yul\":758:761   */\n      dup3\n        /* \"#utility.yul\":751:788   */\n      mstore\n        /* \"#utility.yul\":676:794   */\n      pop\n      pop\n      jump\t// out\n        /* \"#utility.yul\":800:1022   */\n    tag_15:\n        /* \"#utility.yul\":893:897   */\n      0x00\n        /* \"#utility.yul\":931:933   */\n      0x20\n        /* \"#utility.yul\":920:929   */\n      dup3\n        /* \"#utility.yul\":916:934   */\n      add\n        /* \"#utility.yul\":908:934   */\n      swap1\n      pop\n        /* \"#utility.yul\":944:1015   */\n      tag_49\n        /* \"#utility.yul\":1012:1013   */\n      0x00\n        /* \"#utility.yul\":1001:1010   */\n      dup4\n        /* \"#utility.yul\":997:1014   */\n      add\n        /* \"#utility.yul\":988:994   */\n      dup5\n        /* \"#utility.yul\":944:1015   */\n      tag_35\n      jump\t// in\n    tag_49:\n        /* \"#utility.yul\":800:1022   */\n      swap3\n      swap2\n      pop\n      pop\n      jump\t// out\n        /* \"#utility.yul\":1028:1208   */\n    tag_36:\n        /* \"#utility.yul\":1076:1153   */\n      0x4e487b7100000000000000000000000000000000000000000000000000000000\n        /* \"#utility.yul\":1073:1074   */\n      0x00\n        /* \"#utility.yul\":1066:1154   */\n      mstore\n        /* \"#utility.yul\":1173:1177   */\n      0x11\n        /* \"#utility.yul\":1170:1171   */\n      0x04\n        /* \"#utility.yul\":1163:1178   */\n      mstore\n        /* \"#utility.yul\":1197:1201   */\n      0x24\n        /* \"#utility.yul\":1194:1195   */\n      0x00\n        /* \"#utility.yul\":1187:1202   */\n      revert\n        /* \"#utility.yul\":1214:1405   */\n    tag_28:\n        /* \"#utility.yul\":1254:1257   */\n      0x00\n        /* \"#utility.yul\":1273:1293   */\n      tag_52\n        /* \"#utility.yul\":1291:1292   */\n      dup3\n        /* \"#utility.yul\":1273:1293   */\n      tag_34\n      jump\t// in\n    tag_52:\n        /* \"#utility.yul\":1268:1293   */\n      swap2\n      pop\n        /* \"#utility.yul\":1307:1327   */\n      tag_53\n        /* \"#utility.yul\":1325:1326   */\n      dup4\n        /* \"#utility.yul\":1307:1327   */\n      tag_34\n      jump\t// in\n    tag_53:\n        /* \"#utility.yul\":1302:1327   */\n      swap3\n      pop\n        /* \"#utility.yul\":1350:1351   */\n      dup3\n        /* \"#utility.yul\":1347:1348   */\n      dup3\n        /* \"#utility.yul\":1343:1352   */\n      add\n        /* \"#utility.yul\":1336:1352   */\n      swap1\n      pop\n        /* \"#utility.yul\":1371:1374   */\n      dup1\n        /* \"#utility.yul\":1368:1369   */\n      dup3\n        /* \"#utility.yul\":1365:1375   */\n      gt\n        /* \"#utility.yul\":1362:1398   */\n      iszero\n      tag_54\n      jumpi\n        /* \"#utility.yul\":1378:1396   */\n      tag_55\n      tag_36\n      jump\t// in\n    tag_55:\n        /* \"#utility.yul\":1362:1398   */\n    tag_54:\n        /* \"#utility.yul\":1214:1405   */\n      swap3\n      swap2\n      pop\n      pop\n      jump\t// out\n\n    auxdata: 0xa2646970667358221220006abd4512168c0d602206d7602e5a26561138b677af0814e39b372d7076444e64736f6c63430008130033\n}\n",
				"bytecode": {
					"linkReferences": {},
					"object": "6080604052600460005534801561001557600080fd5b5061026a806100256000396000f3fe608060405234801561001057600080fd5b50600436106100575760003560e01c806305b97db61461005c5780633c6bb4361461007a5780634f2be91f14610098578063a05f9906146100b6578063ae25ff26146100d4575b600080fd5b6100646100f2565b6040516100719190610182565b60405180910390f35b6100826100fa565b60405161008f91906101b6565b60405180910390f35b6100a0610100565b6040516100ad91906101b6565b60405180910390f35b6100be61011a565b6040516100cb91906101b6565b60405180910390f35b6100dc610122565b6040516100e991906101b6565b60405180910390f35b600033905090565b60005481565b600080600390506005816101149190610200565b91505090565b600042905090565b60003373ffffffffffffffffffffffffffffffffffffffff1631905090565b600073ffffffffffffffffffffffffffffffffffffffff82169050919050565b600061016c82610141565b9050919050565b61017c81610161565b82525050565b60006020820190506101976000830184610173565b92915050565b6000819050919050565b6101b08161019d565b82525050565b60006020820190506101cb60008301846101a7565b92915050565b7f4e487b7100000000000000000000000000000000000000000000000000000000600052601160045260246000fd5b600061020b8261019d565b91506102168361019d565b925082820190508082111561022e5761022d6101d1565b5b9291505056fea2646970667358221220006abd4512168c0d602206d7602e5a26561138b677af0814e39b372d7076444e64736f6c63430008130033",
					"opcodes": "PUSH1 0x80 PUSH1 0x40 MSTORE PUSH1 0x4 PUSH1 0x0 SSTORE CALLVALUE DUP1 ISZERO PUSH2 0x15 JUMPI PUSH1 0x0 DUP1 REVERT JUMPDEST POP PUSH2 0x26A DUP1 PUSH2 0x25 PUSH1 0x0 CODECOPY PUSH1 0x0 RETURN INVALID PUSH1 0x80 PUSH1 0x40 MSTORE CALLVALUE DUP1 ISZERO PUSH2 0x10 JUMPI PUSH1 0x0 DUP1 REVERT JUMPDEST POP PUSH1 0x4 CALLDATASIZE LT PUSH2 0x57 JUMPI PUSH1 0x0 CALLDATALOAD PUSH1 0xE0 SHR DUP1 PUSH4 0x5B97DB6 EQ PUSH2 0x5C JUMPI DUP1 PUSH4 0x3C6BB436 EQ PUSH2 0x7A JUMPI DUP1 PUSH4 0x4F2BE91F EQ PUSH2 0x98 JUMPI DUP1 PUSH4 0xA05F9906 EQ PUSH2 0xB6 JUMPI DUP1 PUSH4 0xAE25FF26 EQ PUSH2 0xD4 JUMPI JUMPDEST PUSH1 0x0 DUP1 REVERT JUMPDEST PUSH2 0x64 PUSH2 0xF2 JUMP JUMPDEST PUSH1 0x40 MLOAD PUSH2 0x71 SWAP2 SWAP1 PUSH2 0x182 JUMP JUMPDEST PUSH1 0x40 MLOAD DUP1 SWAP2 SUB SWAP1 RETURN JUMPDEST PUSH2 0x82 PUSH2 0xFA JUMP JUMPDEST PUSH1 0x40 MLOAD PUSH2 0x8F SWAP2 SWAP1 PUSH2 0x1B6 JUMP JUMPDEST PUSH1 0x40 MLOAD DUP1 SWAP2 SUB SWAP1 RETURN JUMPDEST PUSH2 0xA0 PUSH2 0x100 JUMP JUMPDEST PUSH1 0x40 MLOAD PUSH2 0xAD SWAP2 SWAP1 PUSH2 0x1B6 JUMP JUMPDEST PUSH1 0x40 MLOAD DUP1 SWAP2 SUB SWAP1 RETURN JUMPDEST PUSH2 0xBE PUSH2 0x11A JUMP JUMPDEST PUSH1 0x40 MLOAD PUSH2 0xCB SWAP2 SWAP1 PUSH2 0x1B6 JUMP JUMPDEST PUSH1 0x40 MLOAD DUP1 SWAP2 SUB SWAP1 RETURN JUMPDEST PUSH2 0xDC PUSH2 0x122 JUMP JUMPDEST PUSH1 0x40 MLOAD PUSH2 0xE9 SWAP2 SWAP1 PUSH2 0x1B6 JUMP JUMPDEST PUSH1 0x40 MLOAD DUP1 SWAP2 SUB SWAP1 RETURN JUMPDEST PUSH1 0x0 CALLER SWAP1 POP SWAP1 JUMP JUMPDEST PUSH1 0x0 SLOAD DUP2 JUMP JUMPDEST PUSH1 0x0 DUP1 PUSH1 0x3 SWAP1 POP PUSH1 0x5 DUP2 PUSH2 0x114 SWAP2 SWAP1 PUSH2 0x200 JUMP JUMPDEST SWAP2 POP POP SWAP1 JUMP JUMPDEST PUSH1 0x0 TIMESTAMP SWAP1 POP SWAP1 JUMP JUMPDEST PUSH1 0x0 CALLER PUSH20 0xFFFFFFFFFFFFFFFFFFFFFFFFFFFFFFFFFFFFFFFF AND BALANCE SWAP1 POP SWAP1 JUMP JUMPDEST PUSH1 0x0 PUSH20 0xFFFFFFFFFFFFFFFFFFFFFFFFFFFFFFFFFFFFFFFF DUP3 AND SWAP1 POP SWAP2 SWAP1 POP JUMP JUMPDEST PUSH1 0x0 PUSH2 0x16C DUP3 PUSH2 0x141 JUMP JUMPDEST SWAP1 POP SWAP2 SWAP1 POP JUMP JUMPDEST PUSH2 0x17C DUP2 PUSH2 0x161 JUMP JUMPDEST DUP3 MSTORE POP POP JUMP JUMPDEST PUSH1 0x0 PUSH1 0x20 DUP3 ADD SWAP1 POP PUSH2 0x197 PUSH1 0x0 DUP4 ADD DUP5 PUSH2 0x173 JUMP JUMPDEST SWAP3 SWAP2 POP POP JUMP JUMPDEST PUSH1 0x0 DUP2 SWAP1 POP SWAP2 SWAP1 POP JUMP JUMPDEST PUSH2 0x1B0 DUP2 PUSH2 0x19D JUMP JUMPDEST DUP3 MSTORE POP POP JUMP JUMPDEST PUSH1 0x0 PUSH1 0x20 DUP3 ADD SWAP1 POP PUSH2 0x1CB PUSH1 0x0 DUP4 ADD DUP5 PUSH2 0x1A7 JUMP JUMPDEST SWAP3 SWAP2 POP POP JUMP JUMPDEST PUSH32 0x4E487B7100000000000000000000000000000000000000000000000000000000 PUSH1 0x0 MSTORE PUSH1 0x11 PUSH1 0x4 MSTORE PUSH1 0x24 PUSH1 0x0 REVERT JUMPDEST PUSH1 0x0 PUSH2 0x20B DUP3 PUSH2 0x19D JUMP JUMPDEST SWAP2 POP PUSH2 0x216 DUP4 PUSH2 0x19D JUMP JUMPDEST SWAP3 POP DUP3 DUP3 ADD SWAP1 POP DUP1 DUP3 GT ISZERO PUSH2 0x22E JUMPI PUSH2 0x22D PUSH2 0x1D1 JUMP JUMPDEST JUMPDEST SWAP3 SWAP2 POP POP JUMP INVALID LOG2 PUSH5 0x6970667358 0x22 SLT KECCAK256 STOP PUSH11 0xBD4512168C0D602206D760 0x2E GAS 0x26 JUMP GT CODESIZE 0xB6 PUSH24 0xAF0814E39B372D7076444E64736F6C634300081300330000 "
				},
				"gasEstimates": {
					"creation": {
						"codeDepositCost": "123600",
						"executionCost": "22277",
						"totalCost": "145877"
					},
					"external": {
						"add()": "infinite",
						"global()": "380",
						"global2()": "363",
						"global4()": "3008",
						"val()": "2429"
					}
				},
				"methodIdentifiers": {
					"add()": "4f2be91f",
					"global()": "a05f9906",
					"global2()": "05b97db6",
					"global4()": "ae25ff26",
					"val()": "3c6bb436"
				}
			},
			"storageLayout": {
				"storage": [
					{
						"astId": 4,
						"contract": "variableTypes.sol:vartypes",
						"label": "val",
						"offset": 0,
						"slot": "0",
						"type": "t_uint256"
					}
				],
				"types": {
					"t_uint256": {
						"encoding": "inplace",
						"label": "uint256",
						"numberOfBytes": "32"
					}
				}
			},
			"userdoc": {
				"kind": "user",
				"methods": {},
				"version": 1
			}
		}
	}
}