{
	"ifelseStatements.sol": {
		"ifElse": {
			"abi": [
				{
					"inputs": [],
					"name": "a",
					"outputs": [
						{
							"internalType": "uint256",
							"name": "",
							"type": "uint256"
						}
					],
					"stateMutability": "view",
					"type": "function"
				},
				{
					"inputs": [],
					"name": "b",
					"outputs": [
						{
							"internalType": "uint256",
							"name": "",
							"type": "uint256"
						}
					],
					"stateMutability": "view",
					"type": "function"
				},
				{
					"inputs": [],
					"name": "get",
					"outputs": [
						{
							"internalType": "uint256",
							"name": "",
							"type": "uint256"
						}
					],
					"stateMutability": "view",
					"type": "function"
				}
			],
			"devdoc": {
				"kind": "dev",
				"methods": {},
				"version": 1
			},
			"evm": {
				"assembly": "    /* \"ifelseStatements.sol\":62:331  contract ifElse{... */\n  mstore(0x40, 0x80)\n    /* \"ifelseStatements.sol\":100:101  5 */\n  0x05\n    /* \"ifelseStatements.sol\":84:101  uint public a = 5 */\n  0x00\n  sstore\n    /* \"ifelseStatements.sol\":124:125  4 */\n  0x04\n    /* \"ifelseStatements.sol\":108:125  uint public b = 4 */\n  0x01\n  sstore\n    /* \"ifelseStatements.sol\":62:331  contract ifElse{... */\n  callvalue\n  dup1\n  iszero\n  tag_1\n  jumpi\n  0x00\n  dup1\n  revert\ntag_1:\n  pop\n  dataSize(sub_0)\n  dup1\n  dataOffset(sub_0)\n  0x00\n  codecopy\n  0x00\n  return\nstop\n\nsub_0: assembly {\n        /* \"ifelseStatements.sol\":62:331  contract ifElse{... */\n      mstore(0x40, 0x80)\n      callvalue\n      dup1\n      iszero\n      tag_1\n      jumpi\n      0x00\n      dup1\n      revert\n    tag_1:\n      pop\n      jumpi(tag_2, lt(calldatasize, 0x04))\n      shr(0xe0, calldataload(0x00))\n      dup1\n      0x0dbe671f\n      eq\n      tag_3\n      jumpi\n      dup1\n      0x4df7e3d0\n      eq\n      tag_4\n      jumpi\n      dup1\n      0x6d4ce63c\n      eq\n      tag_5\n      jumpi\n    tag_2:\n      0x00\n      dup1\n      revert\n        /* \"ifelseStatements.sol\":84:101  uint public a = 5 */\n    tag_3:\n      tag_6\n      tag_7\n      jump\t// in\n    tag_6:\n      mload(0x40)\n      tag_8\n      swap2\n      swap1\n      tag_9\n      jump\t// in\n    tag_8:\n      mload(0x40)\n      dup1\n      swap2\n      sub\n      swap1\n      return\n        /* \"ifelseStatements.sol\":108:125  uint public b = 4 */\n    tag_4:\n      tag_10\n      tag_11\n      jump\t// in\n    tag_10:\n      mload(0x40)\n      tag_12\n      swap2\n      swap1\n      tag_9\n      jump\t// in\n    tag_12:\n      mload(0x40)\n      dup1\n      swap2\n      sub\n      swap1\n      return\n        /* \"ifelseStatements.sol\":134:328  function get() public view returns(uint){... */\n    tag_5:\n      tag_13\n      tag_14\n      jump\t// in\n    tag_13:\n      mload(0x40)\n      tag_15\n      swap2\n      swap1\n      tag_9\n      jump\t// in\n    tag_15:\n      mload(0x40)\n      dup1\n      swap2\n      sub\n      swap1\n      return\n        /* \"ifelseStatements.sol\":84:101  uint public a = 5 */\n    tag_7:\n      sload(0x00)\n      dup2\n      jump\t// out\n        /* \"ifelseStatements.sol\":108:125  uint public b = 4 */\n    tag_11:\n      sload(0x01)\n      dup2\n      jump\t// out\n        /* \"ifelseStatements.sol\":134:328  function get() public view returns(uint){... */\n    tag_14:\n        /* \"ifelseStatements.sol\":169:173  uint */\n      0x00\n        /* \"ifelseStatements.sol\":193:194  4 */\n      0x04\n        /* \"ifelseStatements.sol\":188:189  a */\n      sload(0x00)\n        /* \"ifelseStatements.sol\":188:194  a == 4 */\n      sub\n        /* \"ifelseStatements.sol\":185:321  if(a == 4){... */\n      tag_17\n      jumpi\n        /* \"ifelseStatements.sol\":217:218  1 */\n      0x01\n        /* \"ifelseStatements.sol\":210:218  return 1 */\n      swap1\n      pop\n      jump(tag_16)\n        /* \"ifelseStatements.sol\":185:321  if(a == 4){... */\n    tag_17:\n        /* \"ifelseStatements.sol\":244:245  5 */\n      0x05\n        /* \"ifelseStatements.sol\":239:240  a */\n      sload(0x00)\n        /* \"ifelseStatements.sol\":239:245  a == 5 */\n      sub\n        /* \"ifelseStatements.sol\":236:321  if(a == 5){... */\n      tag_19\n      jumpi\n        /* \"ifelseStatements.sol\":268:269  2 */\n      0x02\n        /* \"ifelseStatements.sol\":261:269  return 2 */\n      swap1\n      pop\n      jump(tag_16)\n        /* \"ifelseStatements.sol\":236:321  if(a == 5){... */\n    tag_19:\n        /* \"ifelseStatements.sol\":308:309  3 */\n      0x03\n        /* \"ifelseStatements.sol\":301:309  return 3 */\n      swap1\n      pop\n        /* \"ifelseStatements.sol\":134:328  function get() public view returns(uint){... */\n    tag_16:\n      swap1\n      jump\t// out\n        /* \"#utility.yul\":7:84   */\n    tag_21:\n        /* \"#utility.yul\":44:51   */\n      0x00\n        /* \"#utility.yul\":73:78   */\n      dup2\n        /* \"#utility.yul\":62:78   */\n      swap1\n      pop\n        /* \"#utility.yul\":7:84   */\n      swap2\n      swap1\n      pop\n      jump\t// out\n        /* \"#utility.yul\":90:208   */\n    tag_22:\n        /* \"#utility.yul\":177:201   */\n      tag_26\n        /* \"#utility.yul\":195:200   */\n      dup2\n        /* \"#utility.yul\":177:201   */\n      tag_21\n      jump\t// in\n    tag_26:\n        /* \"#utility.yul\":172:175   */\n      dup3\n        /* \"#utility.yul\":165:202   */\n      mstore\n        /* \"#utility.yul\":90:208   */\n      pop\n      pop\n      jump\t// out\n        /* \"#utility.yul\":214:436   */\n    tag_9:\n        /* \"#utility.yul\":307:311   */\n      0x00\n        /* \"#utility.yul\":345:347   */\n      0x20\n        /* \"#utility.yul\":334:343   */\n      dup3\n        /* \"#utility.yul\":330:348   */\n      add\n        /* \"#utility.yul\":322:348   */\n      swap1\n      pop\n        /* \"#utility.yul\":358:429   */\n      tag_28\n        /* \"#utility.yul\":426:427   */\n      0x00\n        /* \"#utility.yul\":415:424   */\n      dup4\n        /* \"#utility.yul\":411:428   */\n      add\n        /* \"#utility.yul\":402:408   */\n      dup5\n        /* \"#utility.yul\":358:429   */\n      tag_22\n      jump\t// in\n    tag_28:\n        /* \"#utility.yul\":214:436   */\n      swap3\n      swap2\n      pop\n      pop\n      jump\t// out\n\n    auxdata: 0xa264697066735822122088189d66fb037eee8346adea656e70b65a8f518fdf66367edb67558b252ac04964736f6c63430008130033\n}\n",
				"bytecode": {
					"linkReferences": {},
					"object": "60806040526005600055600460015534801561001a57600080fd5b5061012d8061002a6000396000f3fe6080604052348015600f57600080fd5b5060043610603c5760003560e01c80630dbe671f1460415780634df7e3d014605b5780636d4ce63c146075575b600080fd5b6047608f565b6040516052919060de565b60405180910390f35b60616095565b604051606c919060de565b60405180910390f35b607b609b565b6040516086919060de565b60405180910390f35b60005481565b60015481565b600060046000540360ae576001905060c4565b60056000540360bf576002905060c4565b600390505b90565b6000819050919050565b60d88160c7565b82525050565b600060208201905060f1600083018460d1565b9291505056fea264697066735822122088189d66fb037eee8346adea656e70b65a8f518fdf66367edb67558b252ac04964736f6c63430008130033",
					"opcodes": "PUSH1 0x80 PUSH1 0x40 MSTORE PUSH1 0x5 PUSH1 0x0 SSTORE PUSH1 0x4 PUSH1 0x1 SSTORE CALLVALUE DUP1 ISZERO PUSH2 0x1A JUMPI PUSH1 0x0 DUP1 REVERT JUMPDEST POP PUSH2 0x12D DUP1 PUSH2 0x2A PUSH1 0x0 CODECOPY PUSH1 0x0 RETURN INVALID PUSH1 0x80 PUSH1 0x40 MSTORE CALLVALUE DUP1 ISZERO PUSH1 0xF JUMPI PUSH1 0x0 DUP1 REVERT JUMPDEST POP PUSH1 0x4 CALLDATASIZE LT PUSH1 0x3C JUMPI PUSH1 0x0 CALLDATALOAD PUSH1 0xE0 SHR DUP1 PUSH4 0xDBE671F EQ PUSH1 0x41 JUMPI DUP1 PUSH4 0x4DF7E3D0 EQ PUSH1 0x5B JUMPI DUP1 PUSH4 0x6D4CE63C EQ PUSH1 0x75 JUMPI JUMPDEST PUSH1 0x0 DUP1 REVERT JUMPDEST PUSH1 0x47 PUSH1 0x8F JUMP JUMPDEST PUSH1 0x40 MLOAD PUSH1 0x52 SWAP2 SWAP1 PUSH1 0xDE JUMP JUMPDEST PUSH1 0x40 MLOAD DUP1 SWAP2 SUB SWAP1 RETURN JUMPDEST PUSH1 0x61 PUSH1 0x95 JUMP JUMPDEST PUSH1 0x40 MLOAD PUSH1 0x6C SWAP2 SWAP1 PUSH1 0xDE JUMP JUMPDEST PUSH1 0x40 MLOAD DUP1 SWAP2 SUB SWAP1 RETURN JUMPDEST PUSH1 0x7B PUSH1 0x9B JUMP JUMPDEST PUSH1 0x40 MLOAD PUSH1 0x86 SWAP2 SWAP1 PUSH1 0xDE JUMP JUMPDEST PUSH1 0x40 MLOAD DUP1 SWAP2 SUB SWAP1 RETURN JUMPDEST PUSH1 0x0 SLOAD DUP2 JUMP JUMPDEST PUSH1 0x1 SLOAD DUP2 JUMP JUMPDEST PUSH1 0x0 PUSH1 0x4 PUSH1 0x0 SLOAD SUB PUSH1 0xAE JUMPI PUSH1 0x1 SWAP1 POP PUSH1 0xC4 JUMP JUMPDEST PUSH1 0x5 PUSH1 0x0 SLOAD SUB PUSH1 0xBF JUMPI PUSH1 0x2 SWAP1 POP PUSH1 0xC4 JUMP JUMPDEST PUSH1 0x3 SWAP1 POP JUMPDEST SWAP1 JUMP JUMPDEST PUSH1 0x0 DUP2 SWAP1 POP SWAP2 SWAP1 POP JUMP JUMPDEST PUSH1 0xD8 DUP2 PUSH1 0xC7 JUMP JUMPDEST DUP3 MSTORE POP POP JUMP JUMPDEST PUSH1 0x0 PUSH1 0x20 DUP3 ADD SWAP1 POP PUSH1 0xF1 PUSH1 0x0 DUP4 ADD DUP5 PUSH1 0xD1 JUMP JUMPDEST SWAP3 SWAP2 POP POP JUMP INVALID LOG2 PUSH5 0x6970667358 0x22 SLT KECCAK256 DUP9 XOR SWAP14 PUSH7 0xFB037EEE8346AD 0xEA PUSH6 0x6E70B65A8F51 DUP16 0xDF PUSH7 0x367EDB67558B25 0x2A 0xC0 0x49 PUSH5 0x736F6C6343 STOP ADDMOD SGT STOP CALLER "
				},
				"gasEstimates": {
					"creation": {
						"codeDepositCost": "60200",
						"executionCost": "44323",
						"totalCost": "104523"
					},
					"external": {
						"a()": "2407",
						"b()": "2429",
						"get()": "4616"
					}
				},
				"methodIdentifiers": {
					"a()": "0dbe671f",
					"b()": "4df7e3d0",
					"get()": "6d4ce63c"
				}
			},
			"storageLayout": {
				"storage": [
					{
						"astId": 4,
						"contract": "ifelseStatements.sol:ifElse",
						"label": "a",
						"offset": 0,
						"slot": "0",
						"type": "t_uint256"
					},
					{
						"astId": 7,
						"contract": "ifelseStatements.sol:ifElse",
						"label": "b",
						"offset": 0,
						"slot": "1",
						"type": "t_uint256"
					}
				],
				"types": {
					"t_uint256": {
						"encoding": "inplace",
						"label": "uint256",
						"numberOfBytes": "32"
					}
				}
			},
			"userdoc": {
				"kind": "user",
				"methods": {},
				"version": 1
			}
		}
	}
}