{
	"data": {
		"bytecode": {
			"linkReferences": {},
			"object": "608060405260046000556004600155600460025560046003556004805534801561002857600080fd5b506104c0806100386000396000f3fe608060405234801561001057600080fd5b50600436106100875760003560e01c80639ce5b1151161005b5780639ce5b115146100f0578063bf9e206d1461010e578063c82fdf361461012c578063d2178b081461014a57610087565b806280c5b81461008c5780636d4ce63c146100aa5780638321045c146100b457806395cacbe0146100d2575b600080fd5b610094610168565b6040516100a1919061025e565b60405180910390f35b6100b261016e565b005b6100bc610207565b6040516100c99190610294565b60405180910390f35b6100da610220565b6040516100e7919061025e565b60405180910390f35b6100f8610226565b604051610105919061025e565b60405180910390f35b61011661022c565b604051610123919061025e565b60405180910390f35b610134610232565b604051610141919061025e565b60405180910390f35b610152610238565b60405161015f9190610294565b60405180910390f35b60045481565b600260005461017d91906102de565b60008190555060026001546101929190610312565b600181905550600280546101a69190610346565b60028190555060026003546101bb91906103b7565b60038190555060026004546101d091906103e8565b6004819055506000808154809291906101e890610419565b91905055506002600081548092919061020090610461565b9190505550565b60006001600211801561021b575060036002115b905090565b60015481565b60035481565b60025481565b60005481565b6000600460005414905090565b6000819050919050565b61025881610245565b82525050565b6000602082019050610273600083018461024f565b92915050565b60008115159050919050565b61028e81610279565b82525050565b60006020820190506102a96000830184610285565b92915050565b7f4e487b7100000000000000000000000000000000000000000000000000000000600052601160045260246000fd5b60006102e982610245565b91506102f483610245565b925082820190508082111561030c5761030b6102af565b5b92915050565b600061031d82610245565b915061032883610245565b92508282039050818111156103405761033f6102af565b5b92915050565b600061035182610245565b915061035c83610245565b925082820261036a81610245565b91508282048414831517610381576103806102af565b5b5092915050565b7f4e487b7100000000000000000000000000000000000000000000000000000000600052601260045260246000fd5b60006103c282610245565b91506103cd83610245565b9250826103dd576103dc610388565b5b828204905092915050565b60006103f382610245565b91506103fe83610245565b92508261040e5761040d610388565b5b828206905092915050565b600061042482610245565b91507fffffffffffffffffffffffffffffffffffffffffffffffffffffffffffffffff8203610456576104556102af565b5b600182019050919050565b600061046c82610245565b91506000820361047f5761047e6102af565b5b60018203905091905056fea2646970667358221220ec46d4b05f6bec12bee27f726d98800d4143dbcad026a76517970dbac251139c64736f6c63430008130033",
			"opcodes": "PUSH1 0x80 PUSH1 0x40 MSTORE PUSH1 0x4 PUSH1 0x0 SSTORE PUSH1 0x4 PUSH1 0x1 SSTORE PUSH1 0x4 PUSH1 0x2 SSTORE PUSH1 0x4 PUSH1 0x3 SSTORE PUSH1 0x4 DUP1 SSTORE CALLVALUE DUP1 ISZERO PUSH2 0x28 JUMPI PUSH1 0x0 DUP1 REVERT JUMPDEST POP PUSH2 0x4C0 DUP1 PUSH2 0x38 PUSH1 0x0 CODECOPY PUSH1 0x0 RETURN INVALID PUSH1 0x80 PUSH1 0x40 MSTORE CALLVALUE DUP1 ISZERO PUSH2 0x10 JUMPI PUSH1 0x0 DUP1 REVERT JUMPDEST POP PUSH1 0x4 CALLDATASIZE LT PUSH2 0x87 JUMPI PUSH1 0x0 CALLDATALOAD PUSH1 0xE0 SHR DUP1 PUSH4 0x9CE5B115 GT PUSH2 0x5B JUMPI DUP1 PUSH4 0x9CE5B115 EQ PUSH2 0xF0 JUMPI DUP1 PUSH4 0xBF9E206D EQ PUSH2 0x10E JUMPI DUP1 PUSH4 0xC82FDF36 EQ PUSH2 0x12C JUMPI DUP1 PUSH4 0xD2178B08 EQ PUSH2 0x14A JUMPI PUSH2 0x87 JUMP JUMPDEST DUP1 PUSH3 0x80C5B8 EQ PUSH2 0x8C JUMPI DUP1 PUSH4 0x6D4CE63C EQ PUSH2 0xAA JUMPI DUP1 PUSH4 0x8321045C EQ PUSH2 0xB4 JUMPI DUP1 PUSH4 0x95CACBE0 EQ PUSH2 0xD2 JUMPI JUMPDEST PUSH1 0x0 DUP1 REVERT JUMPDEST PUSH2 0x94 PUSH2 0x168 JUMP JUMPDEST PUSH1 0x40 MLOAD PUSH2 0xA1 SWAP2 SWAP1 PUSH2 0x25E JUMP JUMPDEST PUSH1 0x40 MLOAD DUP1 SWAP2 SUB SWAP1 RETURN JUMPDEST PUSH2 0xB2 PUSH2 0x16E JUMP JUMPDEST STOP JUMPDEST PUSH2 0xBC PUSH2 0x207 JUMP JUMPDEST PUSH1 0x40 MLOAD PUSH2 0xC9 SWAP2 SWAP1 PUSH2 0x294 JUMP JUMPDEST PUSH1 0x40 MLOAD DUP1 SWAP2 SUB SWAP1 RETURN JUMPDEST PUSH2 0xDA PUSH2 0x220 JUMP JUMPDEST PUSH1 0x40 MLOAD PUSH2 0xE7 SWAP2 SWAP1 PUSH2 0x25E JUMP JUMPDEST PUSH1 0x40 MLOAD DUP1 SWAP2 SUB SWAP1 RETURN JUMPDEST PUSH2 0xF8 PUSH2 0x226 JUMP JUMPDEST PUSH1 0x40 MLOAD PUSH2 0x105 SWAP2 SWAP1 PUSH2 0x25E JUMP JUMPDEST PUSH1 0x40 MLOAD DUP1 SWAP2 SUB SWAP1 RETURN JUMPDEST PUSH2 0x116 PUSH2 0x22C JUMP JUMPDEST PUSH1 0x40 MLOAD PUSH2 0x123 SWAP2 SWAP1 PUSH2 0x25E JUMP JUMPDEST PUSH1 0x40 MLOAD DUP1 SWAP2 SUB SWAP1 RETURN JUMPDEST PUSH2 0x134 PUSH2 0x232 JUMP JUMPDEST PUSH1 0x40 MLOAD PUSH2 0x141 SWAP2 SWAP1 PUSH2 0x25E JUMP JUMPDEST PUSH1 0x40 MLOAD DUP1 SWAP2 SUB SWAP1 RETURN JUMPDEST PUSH2 0x152 PUSH2 0x238 JUMP JUMPDEST PUSH1 0x40 MLOAD PUSH2 0x15F SWAP2 SWAP1 PUSH2 0x294 JUMP JUMPDEST PUSH1 0x40 MLOAD DUP1 SWAP2 SUB SWAP1 RETURN JUMPDEST PUSH1 0x4 SLOAD DUP2 JUMP JUMPDEST PUSH1 0x2 PUSH1 0x0 SLOAD PUSH2 0x17D SWAP2 SWAP1 PUSH2 0x2DE JUMP JUMPDEST PUSH1 0x0 DUP2 SWAP1 SSTORE POP PUSH1 0x2 PUSH1 0x1 SLOAD PUSH2 0x192 SWAP2 SWAP1 PUSH2 0x312 JUMP JUMPDEST PUSH1 0x1 DUP2 SWAP1 SSTORE POP PUSH1 0x2 DUP1 SLOAD PUSH2 0x1A6 SWAP2 SWAP1 PUSH2 0x346 JUMP JUMPDEST PUSH1 0x2 DUP2 SWAP1 SSTORE POP PUSH1 0x2 PUSH1 0x3 SLOAD PUSH2 0x1BB SWAP2 SWAP1 PUSH2 0x3B7 JUMP JUMPDEST PUSH1 0x3 DUP2 SWAP1 SSTORE POP PUSH1 0x2 PUSH1 0x4 SLOAD PUSH2 0x1D0 SWAP2 SWAP1 PUSH2 0x3E8 JUMP JUMPDEST PUSH1 0x4 DUP2 SWAP1 SSTORE POP PUSH1 0x0 DUP1 DUP2 SLOAD DUP1 SWAP3 SWAP2 SWAP1 PUSH2 0x1E8 SWAP1 PUSH2 0x419 JUMP JUMPDEST SWAP2 SWAP1 POP SSTORE POP PUSH1 0x2 PUSH1 0x0 DUP2 SLOAD DUP1 SWAP3 SWAP2 SWAP1 PUSH2 0x200 SWAP1 PUSH2 0x461 JUMP JUMPDEST SWAP2 SWAP1 POP SSTORE POP JUMP JUMPDEST PUSH1 0x0 PUSH1 0x1 PUSH1 0x2 GT DUP1 ISZERO PUSH2 0x21B JUMPI POP PUSH1 0x3 PUSH1 0x2 GT JUMPDEST SWAP1 POP SWAP1 JUMP JUMPDEST PUSH1 0x1 SLOAD DUP2 JUMP JUMPDEST PUSH1 0x3 SLOAD DUP2 JUMP JUMPDEST PUSH1 0x2 SLOAD DUP2 JUMP JUMPDEST PUSH1 0x0 SLOAD DUP2 JUMP JUMPDEST PUSH1 0x0 PUSH1 0x4 PUSH1 0x0 SLOAD EQ SWAP1 POP SWAP1 JUMP JUMPDEST PUSH1 0x0 DUP2 SWAP1 POP SWAP2 SWAP1 POP JUMP JUMPDEST PUSH2 0x258 DUP2 PUSH2 0x245 JUMP JUMPDEST DUP3 MSTORE POP POP JUMP JUMPDEST PUSH1 0x0 PUSH1 0x20 DUP3 ADD SWAP1 POP PUSH2 0x273 PUSH1 0x0 DUP4 ADD DUP5 PUSH2 0x24F JUMP JUMPDEST SWAP3 SWAP2 POP POP JUMP JUMPDEST PUSH1 0x0 DUP2 ISZERO ISZERO SWAP1 POP SWAP2 SWAP1 POP JUMP JUMPDEST PUSH2 0x28E DUP2 PUSH2 0x279 JUMP JUMPDEST DUP3 MSTORE POP POP JUMP JUMPDEST PUSH1 0x0 PUSH1 0x20 DUP3 ADD SWAP1 POP PUSH2 0x2A9 PUSH1 0x0 DUP4 ADD DUP5 PUSH2 0x285 JUMP JUMPDEST SWAP3 SWAP2 POP POP JUMP JUMPDEST PUSH32 0x4E487B7100000000000000000000000000000000000000000000000000000000 PUSH1 0x0 MSTORE PUSH1 0x11 PUSH1 0x4 MSTORE PUSH1 0x24 PUSH1 0x0 REVERT JUMPDEST PUSH1 0x0 PUSH2 0x2E9 DUP3 PUSH2 0x245 JUMP JUMPDEST SWAP2 POP PUSH2 0x2F4 DUP4 PUSH2 0x245 JUMP JUMPDEST SWAP3 POP DUP3 DUP3 ADD SWAP1 POP DUP1 DUP3 GT ISZERO PUSH2 0x30C JUMPI PUSH2 0x30B PUSH2 0x2AF JUMP JUMPDEST JUMPDEST SWAP3 SWAP2 POP POP JUMP JUMPDEST PUSH1 0x0 PUSH2 0x31D DUP3 PUSH2 0x245 JUMP JUMPDEST SWAP2 POP PUSH2 0x328 DUP4 PUSH2 0x245 JUMP JUMPDEST SWAP3 POP DUP3 DUP3 SUB SWAP1 POP DUP2 DUP2 GT ISZERO PUSH2 0x340 JUMPI PUSH2 0x33F PUSH2 0x2AF JUMP JUMPDEST JUMPDEST SWAP3 SWAP2 POP POP JUMP JUMPDEST PUSH1 0x0 PUSH2 0x351 DUP3 PUSH2 0x245 JUMP JUMPDEST SWAP2 POP PUSH2 0x35C DUP4 PUSH2 0x245 JUMP JUMPDEST SWAP3 POP DUP3 DUP3 MUL PUSH2 0x36A DUP2 PUSH2 0x245 JUMP JUMPDEST SWAP2 POP DUP3 DUP3 DIV DUP5 EQ DUP4 ISZERO OR PUSH2 0x381 JUMPI PUSH2 0x380 PUSH2 0x2AF JUMP JUMPDEST JUMPDEST POP SWAP3 SWAP2 POP POP JUMP JUMPDEST PUSH32 0x4E487B7100000000000000000000000000000000000000000000000000000000 PUSH1 0x0 MSTORE PUSH1 0x12 PUSH1 0x4 MSTORE PUSH1 0x24 PUSH1 0x0 REVERT JUMPDEST PUSH1 0x0 PUSH2 0x3C2 DUP3 PUSH2 0x245 JUMP JUMPDEST SWAP2 POP PUSH2 0x3CD DUP4 PUSH2 0x245 JUMP JUMPDEST SWAP3 POP DUP3 PUSH2 0x3DD JUMPI PUSH2 0x3DC PUSH2 0x388 JUMP JUMPDEST JUMPDEST DUP3 DUP3 DIV SWAP1 POP SWAP3 SWAP2 POP POP JUMP JUMPDEST PUSH1 0x0 PUSH2 0x3F3 DUP3 PUSH2 0x245 JUMP JUMPDEST SWAP2 POP PUSH2 0x3FE DUP4 PUSH2 0x245 JUMP JUMPDEST SWAP3 POP DUP3 PUSH2 0x40E JUMPI PUSH2 0x40D PUSH2 0x388 JUMP JUMPDEST JUMPDEST DUP3 DUP3 MOD SWAP1 POP SWAP3 SWAP2 POP POP JUMP JUMPDEST PUSH1 0x0 PUSH2 0x424 DUP3 PUSH2 0x245 JUMP JUMPDEST SWAP2 POP PUSH32 0xFFFFFFFFFFFFFFFFFFFFFFFFFFFFFFFFFFFFFFFFFFFFFFFFFFFFFFFFFFFFFFFF DUP3 SUB PUSH2 0x456 JUMPI PUSH2 0x455 PUSH2 0x2AF JUMP JUMPDEST JUMPDEST PUSH1 0x1 DUP3 ADD SWAP1 POP SWAP2 SWAP1 POP JUMP JUMPDEST PUSH1 0x0 PUSH2 0x46C DUP3 PUSH2 0x245 JUMP JUMPDEST SWAP2 POP PUSH1 0x0 DUP3 SUB PUSH2 0x47F JUMPI PUSH2 0x47E PUSH2 0x2AF JUMP JUMPDEST JUMPDEST PUSH1 0x1 DUP3 SUB SWAP1 POP SWAP2 SWAP1 POP JUMP INVALID LOG2 PUSH5 0x6970667358 0x22 SLT KECCAK256 0xEC CHAINID 0xD4 0xB0 0x5F PUSH12 0xEC12BEE27F726D98800D4143 0xDB 0xCA 0xD0 0x26 0xA7 PUSH6 0x17970DBAC251 SGT SWAP13 PUSH5 0x736F6C6343 STOP ADDMOD SGT STOP CALLER "
		},
		"gasEstimates": {
			"creation": {
				"codeDepositCost": "243200",
				"executionCost": "110811",
				"totalCost": "354011"
			},
			"external": {
				"get()": "infinite",
				"get2()": "2515",
				"get3()": "425",
				"val1()": "2473",
				"val2()": "2496",
				"val3()": "2451",
				"val4()": "2429",
				"val5()": "2430"
			}
		},
		"methodIdentifiers": {
			"get()": "6d4ce63c",
			"get2()": "d2178b08",
			"get3()": "8321045c",
			"val1()": "c82fdf36",
			"val2()": "95cacbe0",
			"val3()": "bf9e206d",
			"val4()": "9ce5b115",
			"val5()": "0080c5b8"
		}
	},
	"abi": [
		{
			"inputs": [],
			"name": "get",
			"outputs": [],
			"stateMutability": "nonpayable",
			"type": "function"
		},
		{
			"inputs": [],
			"name": "get2",
			"outputs": [
				{
					"internalType": "bool",
					"name": "",
					"type": "bool"
				}
			],
			"stateMutability": "view",
			"type": "function"
		},
		{
			"inputs": [],
			"name": "get3",
			"outputs": [
				{
					"internalType": "bool",
					"name": "",
					"type": "bool"
				}
			],
			"stateMutability": "pure",
			"type": "function"
		},
		{
			"inputs": [],
			"name": "val1",
			"outputs": [
				{
					"internalType": "uint256",
					"name": "",
					"type": "uint256"
				}
			],
			"stateMutability": "view",
			"type": "function"
		},
		{
			"inputs": [],
			"name": "val2",
			"outputs": [
				{
					"internalType": "uint256",
					"name": "",
					"type": "uint256"
				}
			],
			"stateMutability": "view",
			"type": "function"
		},
		{
			"inputs": [],
			"name": "val3",
			"outputs": [
				{
					"internalType": "uint256",
					"name": "",
					"type": "uint256"
				}
			],
			"stateMutability": "view",
			"type": "function"
		},
		{
			"inputs": [],
			"name": "val4",
			"outputs": [
				{
					"internalType": "uint256",
					"name": "",
					"type": "uint256"
				}
			],
			"stateMutability": "view",
			"type": "function"
		},
		{
			"inputs": [],
			"name": "val5",
			"outputs": [
				{
					"internalType": "uint256",
					"name": "",
					"type": "uint256"
				}
			],
			"stateMutability": "view",
			"type": "function"
		}
	]
}