{
	"data": {
		"bytecode": {
			"linkReferences": {},
			"object": "6080604052605a600055604e60015534801561001a57600080fd5b5061010e8061002a6000396000f3fe6080604052348015600f57600080fd5b5060043610603c5760003560e01c80633c6bb4361460415780636d4ce63c14605b578063b96cc3fe146075575b600080fd5b6047608f565b6040516052919060bf565b60405180910390f35b60616095565b604051606c919060bf565b60405180910390f35b607b609e565b6040516086919060bf565b60405180910390f35b60005481565b60008054905090565b6000600154905090565b6000819050919050565b60b98160a8565b82525050565b600060208201905060d2600083018460b2565b9291505056fea26469706673582212201af0faadf628f28c74228cbd23af155b18304f0666db401e9bfc39951c6d7ed964736f6c63430008130033",
			"opcodes": "PUSH1 0x80 PUSH1 0x40 MSTORE PUSH1 0x5A PUSH1 0x0 SSTORE PUSH1 0x4E PUSH1 0x1 SSTORE CALLVALUE DUP1 ISZERO PUSH2 0x1A JUMPI PUSH1 0x0 DUP1 REVERT JUMPDEST POP PUSH2 0x10E DUP1 PUSH2 0x2A PUSH1 0x0 CODECOPY PUSH1 0x0 RETURN INVALID PUSH1 0x80 PUSH1 0x40 MSTORE CALLVALUE DUP1 ISZERO PUSH1 0xF JUMPI PUSH1 0x0 DUP1 REVERT JUMPDEST POP PUSH1 0x4 CALLDATASIZE LT PUSH1 0x3C JUMPI PUSH1 0x0 CALLDATALOAD PUSH1 0xE0 SHR DUP1 PUSH4 0x3C6BB436 EQ PUSH1 0x41 JUMPI DUP1 PUSH4 0x6D4CE63C EQ PUSH1 0x5B JUMPI DUP1 PUSH4 0xB96CC3FE EQ PUSH1 0x75 JUMPI JUMPDEST PUSH1 0x0 DUP1 REVERT JUMPDEST PUSH1 0x47 PUSH1 0x8F JUMP JUMPDEST PUSH1 0x40 MLOAD PUSH1 0x52 SWAP2 SWAP1 PUSH1 0xBF JUMP JUMPDEST PUSH1 0x40 MLOAD DUP1 SWAP2 SUB SWAP1 RETURN JUMPDEST PUSH1 0x61 PUSH1 0x95 JUMP JUMPDEST PUSH1 0x40 MLOAD PUSH1 0x6C SWAP2 SWAP1 PUSH1 0xBF JUMP JUMPDEST PUSH1 0x40 MLOAD DUP1 SWAP2 SUB SWAP1 RETURN JUMPDEST PUSH1 0x7B PUSH1 0x9E JUMP JUMPDEST PUSH1 0x40 MLOAD PUSH1 0x86 SWAP2 SWAP1 PUSH1 0xBF JUMP JUMPDEST PUSH1 0x40 MLOAD DUP1 SWAP2 SUB SWAP1 RETURN JUMPDEST PUSH1 0x0 SLOAD DUP2 JUMP JUMPDEST PUSH1 0x0 DUP1 SLOAD SWAP1 POP SWAP1 JUMP JUMPDEST PUSH1 0x0 PUSH1 0x1 SLOAD SWAP1 POP SWAP1 JUMP JUMPDEST PUSH1 0x0 DUP2 SWAP1 POP SWAP2 SWAP1 POP JUMP JUMPDEST PUSH1 0xB9 DUP2 PUSH1 0xA8 JUMP JUMPDEST DUP3 MSTORE POP POP JUMP JUMPDEST PUSH1 0x0 PUSH1 0x20 DUP3 ADD SWAP1 POP PUSH1 0xD2 PUSH1 0x0 DUP4 ADD DUP5 PUSH1 0xB2 JUMP JUMPDEST SWAP3 SWAP2 POP POP JUMP INVALID LOG2 PUSH5 0x6970667358 0x22 SLT KECCAK256 BYTE CREATE STATICCALL 0xAD 0xF6 0x28 CALLCODE DUP13 PUSH21 0x228CBD23AF155B18304F0666DB401E9BFC39951C6D PUSH31 0xD964736F6C6343000813003300000000000000000000000000000000000000 "
		},
		"gasEstimates": {
			"creation": {
				"codeDepositCost": "54000",
				"executionCost": "44317",
				"totalCost": "98317"
			},
			"external": {
				"get()": "2437",
				"getval2()": "2459",
				"val()": "2407"
			}
		},
		"methodIdentifiers": {
			"get()": "6d4ce63c",
			"getval2()": "b96cc3fe",
			"val()": "3c6bb436"
		}
	},
	"abi": [
		{
			"inputs": [],
			"name": "get",
			"outputs": [
				{
					"internalType": "uint256",
					"name": "",
					"type": "uint256"
				}
			],
			"stateMutability": "view",
			"type": "function"
		},
		{
			"inputs": [],
			"name": "getval2",
			"outputs": [
				{
					"internalType": "uint256",
					"name": "",
					"type": "uint256"
				}
			],
			"stateMutability": "view",
			"type": "function"
		},
		{
			"inputs": [],
			"name": "val",
			"outputs": [
				{
					"internalType": "uint256",
					"name": "",
					"type": "uint256"
				}
			],
			"stateMutability": "view",
			"type": "function"
		}
	]
}